{
  "_format": "hh-sol-artifact-1",
  "contractName": "Token",
  "sourceName": "contracts/Token.sol",
  "abi": [
    {
      "inputs": [],
      "stateMutability": "nonpayable",
      "type": "constructor"
    },
    {
      "anonymous": false,
      "inputs": [
        {
          "indexed": true,
          "internalType": "address",
          "name": "_from",
          "type": "address"
        },
        {
          "indexed": true,
          "internalType": "address",
          "name": "_to",
          "type": "address"
        },
        {
          "indexed": false,
          "internalType": "uint256",
          "name": "_value",
          "type": "uint256"
        }
      ],
      "name": "Transfer",
      "type": "event"
    },
    {
      "inputs": [
        {
          "internalType": "address",
          "name": "account",
          "type": "address"
        }
      ],
      "name": "balanceOf",
      "outputs": [
        {
          "internalType": "uint256",
          "name": "",
          "type": "uint256"
        }
      ],
      "stateMutability": "view",
      "type": "function"
    },
    {
      "inputs": [],
      "name": "owner",
      "outputs": [
        {
          "internalType": "address",
          "name": "",
          "type": "address"
        }
      ],
      "stateMutability": "view",
      "type": "function"
    },
    {
      "inputs": [],
      "name": "totalChainSupply",
      "outputs": [
        {
          "internalType": "uint256",
          "name": "",
          "type": "uint256"
        }
      ],
      "stateMutability": "view",
      "type": "function"
    },
    {
      "inputs": [
        {
          "internalType": "address",
          "name": "to",
          "type": "address"
        },
        {
          "internalType": "uint256",
          "name": "amount",
          "type": "uint256"
        }
      ],
      "name": "transfer",
      "outputs": [],
      "stateMutability": "nonpayable",
      "type": "function"
    }
  ],
  "bytecode": "0x608060405262989680600055348015601657600080fd5b50600054600260003373ffffffffffffffffffffffffffffffffffffffff1673ffffffffffffffffffffffffffffffffffffffff1681526020019081526020016000208190555033600160006101000a81548173ffffffffffffffffffffffffffffffffffffffff021916908373ffffffffffffffffffffffffffffffffffffffff160217905550610589806100ad6000396000f3fe608060405234801561001057600080fd5b506004361061004c5760003560e01c806370a08231146100515780638da5cb5b14610081578063a9059cbb1461009f578063bd764545146100bb575b600080fd5b61006b60048036038101906100669190610348565b6100d9565b604051610078919061038e565b60405180910390f35b610089610122565b60405161009691906103b8565b60405180910390f35b6100b960048036038101906100b491906103ff565b610148565b005b6100c36102df565b6040516100d0919061038e565b60405180910390f35b6000600260008373ffffffffffffffffffffffffffffffffffffffff1673ffffffffffffffffffffffffffffffffffffffff168152602001908152602001600020549050919050565b600160009054906101000a900473ffffffffffffffffffffffffffffffffffffffff1681565b80600260003373ffffffffffffffffffffffffffffffffffffffff1673ffffffffffffffffffffffffffffffffffffffff1681526020019081526020016000205410156101ca576040517f08c379a00000000000000000000000000000000000000000000000000000000081526004016101c19061049c565b60405180910390fd5b80600260003373ffffffffffffffffffffffffffffffffffffffff1673ffffffffffffffffffffffffffffffffffffffff168152602001908152602001600020600082825461021991906104eb565b9250508190555080600260008473ffffffffffffffffffffffffffffffffffffffff1673ffffffffffffffffffffffffffffffffffffffff168152602001908152602001600020600082825461026f919061051f565b925050819055508173ffffffffffffffffffffffffffffffffffffffff163373ffffffffffffffffffffffffffffffffffffffff167fddf252ad1be2c89b69c2b068fc378daa952ba7f163c4a11628f55a4df523b3ef836040516102d3919061038e565b60405180910390a35050565b60005481565b600080fd5b600073ffffffffffffffffffffffffffffffffffffffff82169050919050565b6000610315826102ea565b9050919050565b6103258161030a565b811461033057600080fd5b50565b6000813590506103428161031c565b92915050565b60006020828403121561035e5761035d6102e5565b5b600061036c84828501610333565b91505092915050565b6000819050919050565b61038881610375565b82525050565b60006020820190506103a3600083018461037f565b92915050565b6103b28161030a565b82525050565b60006020820190506103cd60008301846103a9565b92915050565b6103dc81610375565b81146103e757600080fd5b50565b6000813590506103f9816103d3565b92915050565b60008060408385031215610416576104156102e5565b5b600061042485828601610333565b9250506020610435858286016103ea565b9150509250929050565b600082825260208201905092915050565b7f496e73756666696369656e742046756e64730000000000000000000000000000600082015250565b600061048660128361043f565b915061049182610450565b602082019050919050565b600060208201905081810360008301526104b581610479565b9050919050565b7f4e487b7100000000000000000000000000000000000000000000000000000000600052601160045260246000fd5b60006104f682610375565b915061050183610375565b9250828203905081811115610519576105186104bc565b5b92915050565b600061052a82610375565b915061053583610375565b925082820190508082111561054d5761054c6104bc565b5b9291505056fea2646970667358221220f6377882f2f8b4ad953f2bf34189f568d328cd746ba2ae40e9e0de5cad0af35b64736f6c634300081c0033",
  "linkReferences": {},
  "deployedLinkReferences": {}
}