{
  "_format": "hh-sol-artifact-1",
  "contractName": "Ballot",
  "sourceName": "contracts/Ballot.sol",
  "abi": [
    {
      "inputs": [
        {
          "internalType": "bytes32[]",
          "name": "proposalNames",
          "type": "bytes32[]"
        }
      ],
      "stateMutability": "nonpayable",
      "type": "constructor"
    },
    {
      "inputs": [],
      "name": "chairperson",
      "outputs": [
        {
          "internalType": "address",
          "name": "",
          "type": "address"
        }
      ],
      "stateMutability": "view",
      "type": "function"
    },
    {
      "inputs": [
        {
          "internalType": "address",
          "name": "to",
          "type": "address"
        }
      ],
      "name": "delegate",
      "outputs": [],
      "stateMutability": "nonpayable",
      "type": "function"
    },
    {
      "inputs": [],
      "name": "getAllProposals",
      "outputs": [
        {
          "components": [
            {
              "internalType": "bytes32",
              "name": "name",
              "type": "bytes32"
            },
            {
              "internalType": "uint256",
              "name": "voteCount",
              "type": "uint256"
            }
          ],
          "internalType": "struct Ballot.Proposal[]",
          "name": "",
          "type": "tuple[]"
        }
      ],
      "stateMutability": "view",
      "type": "function"
    },
    {
      "inputs": [
        {
          "internalType": "address",
          "name": "voter",
          "type": "address"
        }
      ],
      "name": "giveRightToVote",
      "outputs": [],
      "stateMutability": "nonpayable",
      "type": "function"
    },
    {
      "inputs": [
        {
          "internalType": "uint256",
          "name": "",
          "type": "uint256"
        }
      ],
      "name": "proposals",
      "outputs": [
        {
          "internalType": "bytes32",
          "name": "name",
          "type": "bytes32"
        },
        {
          "internalType": "uint256",
          "name": "voteCount",
          "type": "uint256"
        }
      ],
      "stateMutability": "view",
      "type": "function"
    },
    {
      "inputs": [
        {
          "internalType": "string",
          "name": "source",
          "type": "string"
        }
      ],
      "name": "stringToBytes32",
      "outputs": [
        {
          "internalType": "bytes32",
          "name": "result",
          "type": "bytes32"
        }
      ],
      "stateMutability": "pure",
      "type": "function"
    },
    {
      "inputs": [
        {
          "internalType": "uint256",
          "name": "proposal",
          "type": "uint256"
        }
      ],
      "name": "vote",
      "outputs": [],
      "stateMutability": "nonpayable",
      "type": "function"
    },
    {
      "inputs": [
        {
          "internalType": "address",
          "name": "",
          "type": "address"
        }
      ],
      "name": "voters",
      "outputs": [
        {
          "internalType": "uint256",
          "name": "weight",
          "type": "uint256"
        },
        {
          "internalType": "bool",
          "name": "voted",
          "type": "bool"
        },
        {
          "internalType": "address",
          "name": "delegate",
          "type": "address"
        },
        {
          "internalType": "uint256",
          "name": "vote",
          "type": "uint256"
        }
      ],
      "stateMutability": "view",
      "type": "function"
    },
    {
      "inputs": [],
      "name": "winnerName",
      "outputs": [
        {
          "internalType": "bytes32",
          "name": "winnerName_",
          "type": "bytes32"
        }
      ],
      "stateMutability": "view",
      "type": "function"
    },
    {
      "inputs": [],
      "name": "winningProposal",
      "outputs": [
        {
          "internalType": "uint256",
          "name": "winningProposal_",
          "type": "uint256"
        }
      ],
      "stateMutability": "view",
      "type": "function"
    }
  ],
  "bytecode": "0x608060405234801561001057600080fd5b506040516117113803806117118339818101604052810190610032919061030e565b336000806101000a81548173ffffffffffffffffffffffffffffffffffffffff021916908373ffffffffffffffffffffffffffffffffffffffff16021790555060018060008060009054906101000a900473ffffffffffffffffffffffffffffffffffffffff1673ffffffffffffffffffffffffffffffffffffffff1673ffffffffffffffffffffffffffffffffffffffff1681526020019081526020016000206000018190555060005b8151811015610164576002604051806040016040528084848151811061010657610105610357565b5b60200260200101518152602001600081525090806001815401808255809150506001900390600052602060002090600202016000909190919091506000820151816000015560208201518160010155505080806001019150506100dd565b5050610386565b6000604051905090565b600080fd5b600080fd5b600080fd5b6000601f19601f8301169050919050565b7f4e487b7100000000000000000000000000000000000000000000000000000000600052604160045260246000fd5b6101cd82610184565b810181811067ffffffffffffffff821117156101ec576101eb610195565b5b80604052505050565b60006101ff61016b565b905061020b82826101c4565b919050565b600067ffffffffffffffff82111561022b5761022a610195565b5b602082029050602081019050919050565b600080fd5b6000819050919050565b61025481610241565b811461025f57600080fd5b50565b6000815190506102718161024b565b92915050565b600061028a61028584610210565b6101f5565b905080838252602082019050602084028301858111156102ad576102ac61023c565b5b835b818110156102d657806102c28882610262565b8452602084019350506020810190506102af565b5050509392505050565b600082601f8301126102f5576102f461017f565b5b8151610305848260208601610277565b91505092915050565b60006020828403121561032457610323610175565b5b600082015167ffffffffffffffff8111156103425761034161017a565b5b61034e848285016102e0565b91505092915050565b7f4e487b7100000000000000000000000000000000000000000000000000000000600052603260045260246000fd5b61137c806103956000396000f3fe608060405234801561001057600080fd5b506004361061009e5760003560e01c80639e7b8d61116100665780639e7b8d6114610148578063a3ec138d14610164578063cceb68f514610197578063cfb51928146101b5578063e2ba53f0146101e55761009e565b80630121b93f146100a3578063013cf08b146100bf5780632e4176cf146100f05780635c19a95c1461010e578063609ff1bd1461012a575b600080fd5b6100bd60048036038101906100b89190610b7f565b610203565b005b6100d960048036038101906100d49190610b7f565b610349565b6040516100e7929190610bd4565b60405180910390f35b6100f861037d565b6040516101059190610c3e565b60405180910390f35b61012860048036038101906101239190610c85565b6103a1565b005b610132610742565b60405161013f9190610cb2565b60405180910390f35b610162600480360381019061015d9190610c85565b6107c4565b005b61017e60048036038101906101799190610c85565b61097b565b60405161018e9493929190610ce8565b60405180910390f35b61019f6109d8565b6040516101ac9190610e29565b60405180910390f35b6101cf60048036038101906101ca9190610f91565b610abb565b6040516101dc9190610fda565b60405180910390f35b6101ed610ae4565b6040516101fa9190610fda565b60405180910390f35b6000600160003373ffffffffffffffffffffffffffffffffffffffff1673ffffffffffffffffffffffffffffffffffffffff1681526020019081526020016000209050600081600001540361028d576040517f08c379a000000000000000000000000000000000000000000000000000000000815260040161028490611052565b60405180910390fd5b8060010160009054906101000a900460ff16156102df576040517f08c379a00000000000000000000000000000000000000000000000000000000081526004016102d6906110be565b60405180910390fd5b60018160010160006101000a81548160ff02191690831515021790555081816002018190555080600001546002838154811061031e5761031d6110de565b5b9060005260206000209060020201600101600082825461033e919061113c565b925050819055505050565b6002818154811061035957600080fd5b90600052602060002090600202016000915090508060000154908060010154905082565b60008054906101000a900473ffffffffffffffffffffffffffffffffffffffff1681565b6000600160003373ffffffffffffffffffffffffffffffffffffffff1673ffffffffffffffffffffffffffffffffffffffff1681526020019081526020016000209050600081600001540361042b576040517f08c379a000000000000000000000000000000000000000000000000000000000815260040161042290611052565b60405180910390fd5b3373ffffffffffffffffffffffffffffffffffffffff168273ffffffffffffffffffffffffffffffffffffffff1603610499576040517f08c379a0000000000000000000000000000000000000000000000000000000008152600401610490906111bc565b60405180910390fd5b5b600073ffffffffffffffffffffffffffffffffffffffff16600160008473ffffffffffffffffffffffffffffffffffffffff1673ffffffffffffffffffffffffffffffffffffffff16815260200190815260200160002060010160019054906101000a900473ffffffffffffffffffffffffffffffffffffffff1673ffffffffffffffffffffffffffffffffffffffff161461060857600160008373ffffffffffffffffffffffffffffffffffffffff1673ffffffffffffffffffffffffffffffffffffffff16815260200190815260200160002060010160019054906101000a900473ffffffffffffffffffffffffffffffffffffffff1691503373ffffffffffffffffffffffffffffffffffffffff168273ffffffffffffffffffffffffffffffffffffffff1603610603576040517f08c379a00000000000000000000000000000000000000000000000000000000081526004016105fa90611228565b60405180910390fd5b61049a565b6000600160008473ffffffffffffffffffffffffffffffffffffffff1673ffffffffffffffffffffffffffffffffffffffff168152602001908152602001600020905060018160000154101561065d57600080fd5b60018260010160006101000a81548160ff021916908315150217905550828260010160016101000a81548173ffffffffffffffffffffffffffffffffffffffff021916908373ffffffffffffffffffffffffffffffffffffffff1602179055508060010160009054906101000a900460ff161561071d57816000015460028260020154815481106106f1576106f06110de565b5b90600052602060002090600202016001016000828254610711919061113c565b9250508190555061073d565b8160000154816000016000828254610735919061113c565b925050819055505b505050565b6000806000905060005b6002805490508110156107bf57816002828154811061076e5761076d6110de565b5b90600052602060002090600202016001015411156107b2576002818154811061079a576107996110de565b5b90600052602060002090600202016001015491508092505b808060010191505061074c565b505090565b60008054906101000a900473ffffffffffffffffffffffffffffffffffffffff1673ffffffffffffffffffffffffffffffffffffffff163373ffffffffffffffffffffffffffffffffffffffff1614610852576040517f08c379a0000000000000000000000000000000000000000000000000000000008152600401610849906112ba565b60405180910390fd5b600160008273ffffffffffffffffffffffffffffffffffffffff1673ffffffffffffffffffffffffffffffffffffffff16815260200190815260200160002060010160009054906101000a900460ff16156108e2576040517f08c379a00000000000000000000000000000000000000000000000000000000081526004016108d990611326565b60405180910390fd5b6000600160008373ffffffffffffffffffffffffffffffffffffffff1673ffffffffffffffffffffffffffffffffffffffff168152602001908152602001600020600001541461093157600080fd5b60018060008373ffffffffffffffffffffffffffffffffffffffff1673ffffffffffffffffffffffffffffffffffffffff1681526020019081526020016000206000018190555050565b60016020528060005260406000206000915090508060000154908060010160009054906101000a900460ff16908060010160019054906101000a900473ffffffffffffffffffffffffffffffffffffffff16908060020154905084565b6060600060028054905067ffffffffffffffff8111156109fb576109fa610e66565b5b604051908082528060200260200182016040528015610a3457816020015b610a21610b18565b815260200190600190039081610a195790505b50905060005b600280549050811015610ab35760028181548110610a5b57610a5a6110de565b5b906000526020600020906002020160405180604001604052908160008201548152602001600182015481525050828281518110610a9b57610a9a6110de565b5b60200260200101819052508080600101915050610a3a565b508091505090565b6000808290506000815103610ad6576000801b915050610adf565b60208301519150505b919050565b60006002610af0610742565b81548110610b0157610b006110de565b5b906000526020600020906002020160000154905090565b604051806040016040528060008019168152602001600081525090565b6000604051905090565b600080fd5b600080fd5b6000819050919050565b610b5c81610b49565b8114610b6757600080fd5b50565b600081359050610b7981610b53565b92915050565b600060208284031215610b9557610b94610b3f565b5b6000610ba384828501610b6a565b91505092915050565b6000819050919050565b610bbf81610bac565b82525050565b610bce81610b49565b82525050565b6000604082019050610be96000830185610bb6565b610bf66020830184610bc5565b9392505050565b600073ffffffffffffffffffffffffffffffffffffffff82169050919050565b6000610c2882610bfd565b9050919050565b610c3881610c1d565b82525050565b6000602082019050610c536000830184610c2f565b92915050565b610c6281610c1d565b8114610c6d57600080fd5b50565b600081359050610c7f81610c59565b92915050565b600060208284031215610c9b57610c9a610b3f565b5b6000610ca984828501610c70565b91505092915050565b6000602082019050610cc76000830184610bc5565b92915050565b60008115159050919050565b610ce281610ccd565b82525050565b6000608082019050610cfd6000830187610bc5565b610d0a6020830186610cd9565b610d176040830185610c2f565b610d246060830184610bc5565b95945050505050565b600081519050919050565b600082825260208201905092915050565b6000819050602082019050919050565b610d6281610bac565b82525050565b610d7181610b49565b82525050565b604082016000820151610d8d6000850182610d59565b506020820151610da06020850182610d68565b50505050565b6000610db28383610d77565b60408301905092915050565b6000602082019050919050565b6000610dd682610d2d565b610de08185610d38565b9350610deb83610d49565b8060005b83811015610e1c578151610e038882610da6565b9750610e0e83610dbe565b925050600181019050610def565b5085935050505092915050565b60006020820190508181036000830152610e438184610dcb565b905092915050565b600080fd5b600080fd5b6000601f19601f8301169050919050565b7f4e487b7100000000000000000000000000000000000000000000000000000000600052604160045260246000fd5b610e9e82610e55565b810181811067ffffffffffffffff82111715610ebd57610ebc610e66565b5b80604052505050565b6000610ed0610b35565b9050610edc8282610e95565b919050565b600067ffffffffffffffff821115610efc57610efb610e66565b5b610f0582610e55565b9050602081019050919050565b82818337600083830152505050565b6000610f34610f2f84610ee1565b610ec6565b905082815260208101848484011115610f5057610f4f610e50565b5b610f5b848285610f12565b509392505050565b600082601f830112610f7857610f77610e4b565b5b8135610f88848260208601610f21565b91505092915050565b600060208284031215610fa757610fa6610b3f565b5b600082013567ffffffffffffffff811115610fc557610fc4610b44565b5b610fd184828501610f63565b91505092915050565b6000602082019050610fef6000830184610bb6565b92915050565b600082825260208201905092915050565b7f596f7520646f6e74206861766520766f74696e67207269676874730000000000600082015250565b600061103c601b83610ff5565b915061104782611006565b602082019050919050565b6000602082019050818103600083015261106b8161102f565b9050919050565b7f596f75206861766520616c726561647920766f74650000000000000000000000600082015250565b60006110a8601583610ff5565b91506110b382611072565b602082019050919050565b600060208201905081810360008301526110d78161109b565b9050919050565b7f4e487b7100000000000000000000000000000000000000000000000000000000600052603260045260246000fd5b7f4e487b7100000000000000000000000000000000000000000000000000000000600052601160045260246000fd5b600061114782610b49565b915061115283610b49565b925082820190508082111561116a5761116961110d565b5b92915050565b7f73656c662d64656c65676174696f6e206973206e6f7420616c6c6f7765640000600082015250565b60006111a6601e83610ff5565b91506111b182611170565b602082019050919050565b600060208201905081810360008301526111d581611199565b9050919050565b7f466f756e64206c6f6f7020696e2064656c65676174696f6e0000000000000000600082015250565b6000611212601883610ff5565b915061121d826111dc565b602082019050919050565b6000602082019050818103600083015261124181611205565b9050919050565b7f6f6e6c792063686169726d616e20676976657320726967687420746f20766f7460008201527f6500000000000000000000000000000000000000000000000000000000000000602082015250565b60006112a4602183610ff5565b91506112af82611248565b604082019050919050565b600060208201905081810360008301526112d381611297565b9050919050565b7f596f75206861766520616c726561647920766f74656400000000000000000000600082015250565b6000611310601683610ff5565b915061131b826112da565b602082019050919050565b6000602082019050818103600083015261133f81611303565b905091905056fea2646970667358221220758a769e95b12ab1bd96bf6f91aa19c9642a4f8bb2211c9317481d6acd8f69e564736f6c634300081c0033",
  "linkReferences": {},
  "deployedLinkReferences": {}
}