{
  "_format": "hh-sol-artifact-1",
  "contractName": "Ballot",
  "sourceName": "contracts/Ballot.sol",
  "abi": [
    {
      "inputs": [
        {
          "internalType": "bytes32[]",
          "name": "proposalNames",
          "type": "bytes32[]"
        }
      ],
      "stateMutability": "nonpayable",
      "type": "constructor"
    },
    {
      "inputs": [],
      "name": "chairpersion",
      "outputs": [
        {
          "internalType": "address",
          "name": "",
          "type": "address"
        }
      ],
      "stateMutability": "view",
      "type": "function"
    },
    {
      "inputs": [
        {
          "internalType": "address",
          "name": "to",
          "type": "address"
        }
      ],
      "name": "delegate",
      "outputs": [],
      "stateMutability": "nonpayable",
      "type": "function"
    },
    {
      "inputs": [
        {
          "internalType": "address",
          "name": "voter",
          "type": "address"
        }
      ],
      "name": "giveRightToVote",
      "outputs": [],
      "stateMutability": "nonpayable",
      "type": "function"
    },
    {
      "inputs": [
        {
          "internalType": "uint256",
          "name": "",
          "type": "uint256"
        }
      ],
      "name": "proposals",
      "outputs": [
        {
          "internalType": "bytes32",
          "name": "name",
          "type": "bytes32"
        },
        {
          "internalType": "uint256",
          "name": "voteCount",
          "type": "uint256"
        }
      ],
      "stateMutability": "view",
      "type": "function"
    },
    {
      "inputs": [
        {
          "internalType": "string",
          "name": "source",
          "type": "string"
        }
      ],
      "name": "stringToBytes32",
      "outputs": [
        {
          "internalType": "bytes32",
          "name": "result",
          "type": "bytes32"
        }
      ],
      "stateMutability": "pure",
      "type": "function"
    },
    {
      "inputs": [
        {
          "internalType": "uint256",
          "name": "proposal",
          "type": "uint256"
        }
      ],
      "name": "vote",
      "outputs": [],
      "stateMutability": "nonpayable",
      "type": "function"
    },
    {
      "inputs": [
        {
          "internalType": "address",
          "name": "",
          "type": "address"
        }
      ],
      "name": "voters",
      "outputs": [
        {
          "internalType": "uint256",
          "name": "weight",
          "type": "uint256"
        },
        {
          "internalType": "bool",
          "name": "voted",
          "type": "bool"
        },
        {
          "internalType": "address",
          "name": "delegate",
          "type": "address"
        },
        {
          "internalType": "uint256",
          "name": "vote",
          "type": "uint256"
        }
      ],
      "stateMutability": "view",
      "type": "function"
    },
    {
      "inputs": [],
      "name": "winnerName",
      "outputs": [
        {
          "internalType": "bytes32",
          "name": "winnerName_",
          "type": "bytes32"
        }
      ],
      "stateMutability": "view",
      "type": "function"
    },
    {
      "inputs": [],
      "name": "winningProposal",
      "outputs": [
        {
          "internalType": "uint256",
          "name": "winningProposal_",
          "type": "uint256"
        }
      ],
      "stateMutability": "view",
      "type": "function"
    }
  ],
  "bytecode": "0x608060405234801561001057600080fd5b506040516114ca3803806114ca8339818101604052810190610032919061030e565b336000806101000a81548173ffffffffffffffffffffffffffffffffffffffff021916908373ffffffffffffffffffffffffffffffffffffffff16021790555060018060008060009054906101000a900473ffffffffffffffffffffffffffffffffffffffff1673ffffffffffffffffffffffffffffffffffffffff1673ffffffffffffffffffffffffffffffffffffffff1681526020019081526020016000206000018190555060005b8151811015610164576002604051806040016040528084848151811061010657610105610357565b5b60200260200101518152602001600081525090806001815401808255809150506001900390600052602060002090600202016000909190919091506000820151816000015560208201518160010155505080806001019150506100dd565b5050610386565b6000604051905090565b600080fd5b600080fd5b600080fd5b6000601f19601f8301169050919050565b7f4e487b7100000000000000000000000000000000000000000000000000000000600052604160045260246000fd5b6101cd82610184565b810181811067ffffffffffffffff821117156101ec576101eb610195565b5b80604052505050565b60006101ff61016b565b905061020b82826101c4565b919050565b600067ffffffffffffffff82111561022b5761022a610195565b5b602082029050602081019050919050565b600080fd5b6000819050919050565b61025481610241565b811461025f57600080fd5b50565b6000815190506102718161024b565b92915050565b600061028a61028584610210565b6101f5565b905080838252602082019050602084028301858111156102ad576102ac61023c565b5b835b818110156102d657806102c28882610262565b8452602084019350506020810190506102af565b5050509392505050565b600082601f8301126102f5576102f461017f565b5b8151610305848260208601610277565b91505092915050565b60006020828403121561032457610323610175565b5b600082015167ffffffffffffffff8111156103425761034161017a565b5b61034e848285016102e0565b91505092915050565b7f4e487b7100000000000000000000000000000000000000000000000000000000600052603260045260246000fd5b611135806103956000396000f3fe608060405234801561001057600080fd5b50600436106100935760003560e01c8063609ff1bd11610066578063609ff1bd1461011f5780639e7b8d611461013d578063a3ec138d14610159578063cfb519281461018c578063e2ba53f0146101bc57610093565b80630121b93f14610098578063013cf08b146100b45780630fe64d76146100e55780635c19a95c14610103575b600080fd5b6100b260048036038101906100ad9190610a56565b6101da565b005b6100ce60048036038101906100c99190610a56565b610320565b6040516100dc929190610aab565b60405180910390f35b6100ed610354565b6040516100fa9190610b15565b60405180910390f35b61011d60048036038101906101189190610b5c565b610378565b005b610127610719565b6040516101349190610b89565b60405180910390f35b61015760048036038101906101529190610b5c565b61079b565b005b610173600480360381019061016e9190610b5c565b610952565b6040516101839493929190610bbf565b60405180910390f35b6101a660048036038101906101a19190610d4a565b6109af565b6040516101b39190610d93565b60405180910390f35b6101c46109d8565b6040516101d19190610d93565b60405180910390f35b6000600160003373ffffffffffffffffffffffffffffffffffffffff1673ffffffffffffffffffffffffffffffffffffffff16815260200190815260200160002090506000816000015403610264576040517f08c379a000000000000000000000000000000000000000000000000000000000815260040161025b90610e0b565b60405180910390fd5b8060010160009054906101000a900460ff16156102b6576040517f08c379a00000000000000000000000000000000000000000000000000000000081526004016102ad90610e77565b60405180910390fd5b60018160010160006101000a81548160ff0219169083151502179055508181600201819055508060000154600283815481106102f5576102f4610e97565b5b906000526020600020906002020160010160008282546103159190610ef5565b925050819055505050565b6002818154811061033057600080fd5b90600052602060002090600202016000915090508060000154908060010154905082565b60008054906101000a900473ffffffffffffffffffffffffffffffffffffffff1681565b6000600160003373ffffffffffffffffffffffffffffffffffffffff1673ffffffffffffffffffffffffffffffffffffffff16815260200190815260200160002090506000816000015403610402576040517f08c379a00000000000000000000000000000000000000000000000000000000081526004016103f990610e0b565b60405180910390fd5b3373ffffffffffffffffffffffffffffffffffffffff168273ffffffffffffffffffffffffffffffffffffffff1603610470576040517f08c379a000000000000000000000000000000000000000000000000000000000815260040161046790610f75565b60405180910390fd5b5b600073ffffffffffffffffffffffffffffffffffffffff16600160008473ffffffffffffffffffffffffffffffffffffffff1673ffffffffffffffffffffffffffffffffffffffff16815260200190815260200160002060010160019054906101000a900473ffffffffffffffffffffffffffffffffffffffff1673ffffffffffffffffffffffffffffffffffffffff16146105df57600160008373ffffffffffffffffffffffffffffffffffffffff1673ffffffffffffffffffffffffffffffffffffffff16815260200190815260200160002060010160019054906101000a900473ffffffffffffffffffffffffffffffffffffffff1691503373ffffffffffffffffffffffffffffffffffffffff168273ffffffffffffffffffffffffffffffffffffffff16036105da576040517f08c379a00000000000000000000000000000000000000000000000000000000081526004016105d190610fe1565b60405180910390fd5b610471565b6000600160008473ffffffffffffffffffffffffffffffffffffffff1673ffffffffffffffffffffffffffffffffffffffff168152602001908152602001600020905060018160000154101561063457600080fd5b60018260010160006101000a81548160ff021916908315150217905550828260010160016101000a81548173ffffffffffffffffffffffffffffffffffffffff021916908373ffffffffffffffffffffffffffffffffffffffff1602179055508060010160009054906101000a900460ff16156106f457816000015460028260020154815481106106c8576106c7610e97565b5b906000526020600020906002020160010160008282546106e89190610ef5565b92505081905550610714565b816000015481600001600082825461070c9190610ef5565b925050819055505b505050565b6000806000905060005b60028054905081101561079657816002828154811061074557610744610e97565b5b9060005260206000209060020201600101541115610789576002818154811061077157610770610e97565b5b90600052602060002090600202016001015491508092505b8080600101915050610723565b505090565b60008054906101000a900473ffffffffffffffffffffffffffffffffffffffff1673ffffffffffffffffffffffffffffffffffffffff163373ffffffffffffffffffffffffffffffffffffffff1614610829576040517f08c379a000000000000000000000000000000000000000000000000000000000815260040161082090611073565b60405180910390fd5b600160008273ffffffffffffffffffffffffffffffffffffffff1673ffffffffffffffffffffffffffffffffffffffff16815260200190815260200160002060010160009054906101000a900460ff16156108b9576040517f08c379a00000000000000000000000000000000000000000000000000000000081526004016108b0906110df565b60405180910390fd5b6000600160008373ffffffffffffffffffffffffffffffffffffffff1673ffffffffffffffffffffffffffffffffffffffff168152602001908152602001600020600001541461090857600080fd5b60018060008373ffffffffffffffffffffffffffffffffffffffff1673ffffffffffffffffffffffffffffffffffffffff1681526020019081526020016000206000018190555050565b60016020528060005260406000206000915090508060000154908060010160009054906101000a900460ff16908060010160019054906101000a900473ffffffffffffffffffffffffffffffffffffffff16908060020154905084565b60008082905060008151036109ca576000801b9150506109d3565b60208301519150505b919050565b600060026109e4610719565b815481106109f5576109f4610e97565b5b906000526020600020906002020160000154905090565b6000604051905090565b600080fd5b600080fd5b6000819050919050565b610a3381610a20565b8114610a3e57600080fd5b50565b600081359050610a5081610a2a565b92915050565b600060208284031215610a6c57610a6b610a16565b5b6000610a7a84828501610a41565b91505092915050565b6000819050919050565b610a9681610a83565b82525050565b610aa581610a20565b82525050565b6000604082019050610ac06000830185610a8d565b610acd6020830184610a9c565b9392505050565b600073ffffffffffffffffffffffffffffffffffffffff82169050919050565b6000610aff82610ad4565b9050919050565b610b0f81610af4565b82525050565b6000602082019050610b2a6000830184610b06565b92915050565b610b3981610af4565b8114610b4457600080fd5b50565b600081359050610b5681610b30565b92915050565b600060208284031215610b7257610b71610a16565b5b6000610b8084828501610b47565b91505092915050565b6000602082019050610b9e6000830184610a9c565b92915050565b60008115159050919050565b610bb981610ba4565b82525050565b6000608082019050610bd46000830187610a9c565b610be16020830186610bb0565b610bee6040830185610b06565b610bfb6060830184610a9c565b95945050505050565b600080fd5b600080fd5b6000601f19601f8301169050919050565b7f4e487b7100000000000000000000000000000000000000000000000000000000600052604160045260246000fd5b610c5782610c0e565b810181811067ffffffffffffffff82111715610c7657610c75610c1f565b5b80604052505050565b6000610c89610a0c565b9050610c958282610c4e565b919050565b600067ffffffffffffffff821115610cb557610cb4610c1f565b5b610cbe82610c0e565b9050602081019050919050565b82818337600083830152505050565b6000610ced610ce884610c9a565b610c7f565b905082815260208101848484011115610d0957610d08610c09565b5b610d14848285610ccb565b509392505050565b600082601f830112610d3157610d30610c04565b5b8135610d41848260208601610cda565b91505092915050565b600060208284031215610d6057610d5f610a16565b5b600082013567ffffffffffffffff811115610d7e57610d7d610a1b565b5b610d8a84828501610d1c565b91505092915050565b6000602082019050610da86000830184610a8d565b92915050565b600082825260208201905092915050565b7f596f7520646f6e74206861766520766f74696e67207269676874730000000000600082015250565b6000610df5601b83610dae565b9150610e0082610dbf565b602082019050919050565b60006020820190508181036000830152610e2481610de8565b9050919050565b7f596f75206861766520616c726561647920766f74650000000000000000000000600082015250565b6000610e61601583610dae565b9150610e6c82610e2b565b602082019050919050565b60006020820190508181036000830152610e9081610e54565b9050919050565b7f4e487b7100000000000000000000000000000000000000000000000000000000600052603260045260246000fd5b7f4e487b7100000000000000000000000000000000000000000000000000000000600052601160045260246000fd5b6000610f0082610a20565b9150610f0b83610a20565b9250828201905080821115610f2357610f22610ec6565b5b92915050565b7f73656c662d64656c65676174696f6e206973206e6f7420616c6c6f7765640000600082015250565b6000610f5f601e83610dae565b9150610f6a82610f29565b602082019050919050565b60006020820190508181036000830152610f8e81610f52565b9050919050565b7f466f756e64206c6f6f7020696e2064656c65676174696f6e0000000000000000600082015250565b6000610fcb601883610dae565b9150610fd682610f95565b602082019050919050565b60006020820190508181036000830152610ffa81610fbe565b9050919050565b7f6f6e6c792063686169726d616e20676976657320726967687420746f20766f7460008201527f6500000000000000000000000000000000000000000000000000000000000000602082015250565b600061105d602183610dae565b915061106882611001565b604082019050919050565b6000602082019050818103600083015261108c81611050565b9050919050565b7f596f75206861766520616c726561647920766f74656400000000000000000000600082015250565b60006110c9601683610dae565b91506110d482611093565b602082019050919050565b600060208201905081810360008301526110f8816110bc565b905091905056fea26469706673582212207267b8a6095a684999bce9a7e4bd86efd8183531adc63936305105c9d70e9e2664736f6c634300081c0033",
  "linkReferences": {},
  "deployedLinkReferences": {}
}